:060000000A128A1110280B
:10000800FE00030EF0000A08F100831203137F08B4
:10001800F2000A128A15F02C0A128A1113280A1201
:100028008A11FB270A128A11FA00831320308400F0
:1000380048300A128A153C230A128A11F801F9017C
:1000480083010A128A15812B83120313D8001330F7
:100058003E063F04031D312832288428FF30D5008E
:100068005508D800A801A901AC01AD01A601A70156
:10007800AA01AB01E930C8008530C9008030D5003D
:100088005508CA000A128A150C240A128A118C30E3
:1000980083120313D5005508D300DF300A128A15DE
:1000A8006C230A128A114A3083120313C80086305F
:1000B800C9008D30D5005508CA000A128A150C24CB
:1000C8000A128A11F63083120313C8008530C9005A
:1000D800C030D5005508CA000A128A150C240A1225
:1000E8008A11AA3083120313C8008530C900D030A2
:1000F800D5005508CA000A128A150C240A128A115A
:1001080083120313580A03198A288B28C4282A3013
:100118005806031990289128C42823305806031933
:1001280096289728C4280130A8070318A90A003080
:10013800A9072908803AFF0080307F02031DA628FE
:10014800043028020318A928AA28D52983120313E2
:100158002708F4002608F3000A30F5000030F600FE
:100168000A128A15E1230A128A1183120313580806
:100178007307A6000030031801307407A700D529BB
:100188002A305806031DC928CA28CF28A801A90162
:10019800A601A701D52923305806031DD428D52840
:1001A800D5292708803AFF0080307F02031DDE280A
:1001B800FA302602031CE128E22811290A128A15BE
:1001C80034230A128A11553083120313C80085306C
:1001D800C900C030D5005508CA000A128A150C2477
:1001E8000A128A11831203138714333083120313FC
:1001F800D700BB30D600DF30D500D50B0129D60B90
:100208000129D70B01298312031387100A128A15B3
:1002180034230A128A110130692A0A128A153423F2
:100228000A128A11BB3083120313C8008530C90033
:100238008030D5005508CA000A128A150C240A1203
:100248008A11B43083120313BA000030BB001215B0
:100258001C30C8008630C9009030D5005508CA0047
:100268000A128A150C240A128A11CB290A128A1535
:10027800B2240A128A1183120313D500D601550835
:10028800A4005608A50024032504031D4C294D2964
:100298006C29BB30C8008530C9008030D5005508AE
:1002A800CA000A128A150C240A128A111C308312F9
:1002B8000313C8008630C9009030D5005508CA001D
:1002C8000A128A150C240A128A11831203130711C1
:1002D8009B30D5005508D3006430F3000030F4009B
:1002E8003B08F6003A08F5000A128A1506260A1293
:1002F8008A117308303E0A128A156C230A128A1171
:100308009C3083120313D5005508D3000A30CC0063
:100318000030CD000A30F3000030F4003B08F6004E
:100328003A08F5000A128A1506260A128A11740874
:1003380083120313CF007308CE000A128A154825CA
:100348000A128A11831203134C08303E0A128A15C6
:100358006C230A128A119D3083120313D5005508A5
:10036800D3000A30CC000030CD003B08CF003A085B
:10037800CE000A128A1548250A128A11831203131D
:100388004C08303E0A128A156C230A128A1183120D
:1003980003133A083B04031DD229D3293A29003014
:1003A800692A013083120313AA070318AB0A003025
:1003B800AB0733302A062B04031DE329E429532A0B
:1003C800AA01AB012C082D040319EB29ED290130F2
:1003D800EE290030D500D6015508AC005608AD000E
:1003E800C830D5005508D3006430F3000030F4005D
:1003F8002708F6002608F5000A128A1506260A12AA
:100408008A117308303E0A128A156C230A128A115F
:10041800C93083120313D5005508D3000A30CC0025
:100428000030CD000A30F3000030F4002708F60051
:100438002608F5000A128A1506260A128A11740877
:1004480083120313CF007308CE000A128A154825B9
:100458000A128A11831203134C08303E0A128A15B5
:100468006C230A128A11CA3083120313D500550867
:10047800D3000A30CC000030CD002708CF00260872
:10048800CE000A128A1548250A128A11831203130C
:100498004C08303E0A128A156C230A128A118312FC
:1004A80003132C082D0403195A2A5B2A682A0D30D5
:1004B800C8008530C900C830D5005508CA000A12DE
:1004C8008A150C240A128A110F30080083120313AC
:1004D800D5003F08803AFF0080307F02031D762A4E
:1004E80011303E02031C792A7A2ABC2AF3010C3007
:1004F8000A128A153F240A128A11FF308312031345
:10050800D3005308D500F801F901BA01BB01BC01B9
:10051800BD01B201B301AE01AF018830C80085301A
:10052800C9008030D3005308CA000A128A150C2467
:100538000A128A11103083120313C8008630C900CA
:10054800C030D3005308CA000A128A150C240A12B4
:100558008A11AA3083120313C8008530C900D0302D
:10056800D3005308CA000A128A150C240A128A11E9
:1005780083120313550A0319C22AC32A622B2A308D
:1005880055060319C82AC92A622B233055060319B0
:10059800CE2ACF2A622B0130F8070318F90A003057
:1005A800F9077908803AFF0080307F02031DDE2AB0
:1005B800033078020318E12AE22AFC2A8312031383
:1005C8003B08F4003A08F3000A30F5000030F60062
:1005D8000A128A15E1230A128A1183120313550895
:1005E8007307BA000030031801307407BB002F2BC3
:1005F8007908803AFF0080307F02031D052B033005
:100608007802031C082B092B2F2B7908803AFF004E
:1006180080307F02031D122B053078020318152B3A
:10062800162B2F2B831203133D08F4003C08F3000C
:100638000A30F5000030F6000A128A15E1230A1282
:100648008A118312031355087307BC00003003187E
:1006580001307407BD007908803AFF0080307F02BE
:10066800031D382B0230780203183B2B3C2B412BFF
:1006780083120313AE01AF01B42B7908803AFF004F
:1006880080307F02031D4A2B02307802031C4D2B59
:100698004E2BB42B7908803AFF0080307F02031D6F
:1006A800572B0430780203185A2B5B2BB42B0130DC
:1006B80083120313AE000030AF00B42B2A30550666
:1006C800031D672B682BA12B7908803AFF00803027
:1006D8007F02031D712B033078020318742B752BCE
:1006E8007E2B83120313BA01BB01F801F901AE0195
:1006F800AF01B42B7908803AFF0080307F02031DD8
:10070800872B03307802031C8A2B8B2BB42B790898
:10071800803AFF0080307F02031D942B0530780259
:100728000318972B982BB42B83120313BC01BD011C
:100738000230F8000030F9005B2B23305506031D0A
:10074800A62BA72BB42B0A128A1534230A128A1156
:1007580083120313121507150630C0000030C100BC
:100768000A30F3000030F400831203133B08F6004C
:100778003A08F5000A128A1506260A128A11730821
:10078800303E83120313D3005308C2000A30CC0052
:100798000030CD003B08CF003A08CE000A128A1577
:1007A80048250A128A11831203134C08303ED300DD
:1007B8005308C300C4010A30F3000030F4003D08B8
:1007C800F6003C08F5000A128A1506260A128A1154
:1007D8007308303E83120313D3005308C5000A3050
:1007E800CC000030CD003D08CF003C08CE000A12F6
:1007F8008A1548250A128A11831203134C08303EC1
:10080800D3005308C600C7010130B0070318B10A66
:100818000030B107333030063104031D142C152C79
:10082800412CB001B1013208330403191C2C1E2CD1
:1008380001301F2C0030D300D4015308B2005408F3
:10084800B3004530C8000030C900C630D300530893
:10085800CA000A128A150C240A128A11423083121D
:100868000313C8000030C900C930D3005308CA00B8
:100878000A128A150C240A128A11831203133208E9
:1008880033040319482C492C732C662C0E30C800ED
:100898008530C900C930D3005308CA000A128A1526
:1008A8000C240A128A11732C0E30C8008530C90036
:1008B800C630D3005308CA000A128A150C240A123B
:1008C8008A11732C2F08003A03196B2C732C2E08ED
:1008D800003A03194A2C013A0319582C732C0800C2
:1008E80083120313D801D901831203135808803ED9
:1008F800D5005508D300FF300A128A156C230A1256
:100908008A11013083120313D8070318D90A00305B
:10091800D9075908803AFF0080307F02031D962CC2
:1009280010305802031C992C9A2C782CCB30831247
:100938000313C8008530C900C030D5005508CA0067
:100948000A128A150C240A128A11773083120313AB
:10095800C8008530C9009030D5005508CA000A1271
:100968008A150C240A128A1183120313DA01DB0197
:10097800831203135A08D03ED5005508D300FF3020
:100988000A128A156C230A128A1101308312031382
:10099800DA070318DB0A0030DB075B08803AFF0040
:1009A80080307F02031DDA2C10305A02031CDD2C24
:1009B800DE2CBC2C1A3083120313D7005E30D6000D
:1009C8006D30D500D50BE62CD60BE62CD70BE62CD4
:1009D800ED2C0800FF1BF82C83137F1883170008E1
:1009E800840A0319FF0A08007F087F398A0004086F
:1009F800840A0319FF0A8200203436342E34533413
:100A080054344F34503420342034203420342034AB
:100A180020342034203420340034203435342E342B
:100A28005034413455345334453420342034203440
:100A3800203420342034203420340034203420342E
:100A4800203420342034203449345334203455346D
:100A580050342034203420342034203400342034DE
:100A6800203443344F344F344B3449344E344734B4
:100A78002034543449344D3445342034203400343F
:100A88002034203450346C34653461347334653424
:100A9800203443346C346F34733465342034203458
:100AA80000342034203449346E34763461346C3464
:100AB800693464342034543465346D3470342E34DD
:100AC80020340034203434342E34533454344134F4
:100AD800523454342F3452344534533455344D340D
:100AE80045342034003420344D346934633472344E
:100AF8006F34773461347634653420344F34763447
:100B080065346E342034003453344534543420343E
:100B1800543449344D344534203428344D344D341C
:100B28003A34533453342934003444346F346F34F2
:100B380072342034533474346134743475347334F7
:100B48003A344F34503445344E3400342A343A342D
:100B580043344C3445344134523420342034233423
:100B68003A3445344E345434453452340034203405
:100B780020345034723465342D344834653461344B
:100B8800743469346E3467342034203400342034AB
:100B9800203450346F3477346534723469346E34A9
:100BA800673420344F344E342034003420345034E9
:100BB8006F3477346534723420343D34203439341A
:100BC80030343034573420340034533445345434BA
:100BD8002034543445344D3450342E3420342834A1
:100BE800203400342034543445344D3450342034C7
:100BF8003A34203430343034303420340034333410
:100C08002E3443346F346E3476346534633474343C
:100C180069346F346E340034543449344D344534B7
:100C28002D342034303430343A34303430340034D5
:100C38002034543469346D34653420345234653486
:100C48006D342E343D3400342034543449344D341A
:100C5800453420343D3420342034003432342E34AA
:100C68004734723469346C346C34003431342E3483
:100C78004D346934633472346F34003434342E3470
:100C8800533474346134723474340034433420344B
:100C9800293400340A128A15B2240A128A1128301B
:100CA80083120313C8008630C9008030D500550868
:100CB800CA000A128A150C240A128A110A30F30093
:100CC8000030F400831203133D08F6003C08F500D9
:100CD8000A128A1506260A128A117308303E8312F0
:100CE8000313D5005508C5000A30CC000030CD00EC
:100CF8003D08CF003C08CE000A128A1548250A1282
:100D08008A11831203134C08303ED5005508C600DB
:100D1800C7014530C8000030C9008930D5005508E2
:100D2800CA000A128A150C240A128A118B308312FF
:100D38000313D5005508D3003A300A128A156C23DC
:100D48000A128A118C3083120313D5005508D30078
:100D58000A30F3000030F4003B08F6003A08F500CA
:100D68000A128A1506260A128A117308303E0A12D8
:100D78008A156C230A128A118D3083120313D50049
:100D88005508D3000A30CC000030CD003B08CF0016
:100D98003A08CE000A128A1548250A128A118312C7
:100DA80003134C08303E0A128A156C230A128A1162
:100DB800663083120313C8008530C900C030D500DF
:100DC8005508CA000A128A150C240A128A11113011
:100DD80083120313C8008530C9009030D500550828
:100DE800CA000A128A150C240A128A1100308312CA
:100DF8000313C8008530C900D030D5005508CA0093
:100E08000A128A150C240A128A11831203133C0849
:100E18003D04031D102F112F5B2F3A083B04031DBF
:100E2800162F172F5B2F121107110A128A15342358
:100E38000A128A11333083120313C8008530C9009F
:100E4800C030D5005508CA000A128A150C240A12A7
:100E58008A11223083120313C8008530C9009030EC
:100E6800D5005508CA000A128A150C240A128A11DC
:100E78008312031387144D3083120313D7001930DC
:100E8800D6004F30D500D50B472FD60B472FD70BA1
:100E9800472F8312031387100A128A1534230A1264
:100EA8008A11013083120313C0000030C10008000A
:100EB80083120313DB00D22F0A128A1575240A1233
:100EC8008A11EE2F0A128A114E260A128A11EE2F63
:100ED8005B080A128A116A220A128A11EE2F5B082D
:100EE8000A128A116A220A128A11EE2F340835046E
:100EF800031D7F2F802FBB2F5B080A128A11282021
:100F08000A128A1183120313D900DA015908B800AA
:100F18005A08B90038033904031D932F942F9D2FC5
:100F28000130B6000030B7001330BE000030BF00FB
:100F3800EE2F38083904031DA22FA32FB82F121142
:100F48000130B6000030B7000130B4000030B50001
:100F58000A128A1534230A128A11143083120313D1
:100F6800BE000030BF00EE2FB601B701EE2F5B08C0
:100F78000A128A116A220A128A110F308312031385
:100F8800BE000030BF00EE2F12110711EE2F121114
:100F980007110130C0000030C100EE2F4108003AAF
:100FA8000319D72FEE2F4008013A0319602F033A8F
:100FB80003196C2F013A0319732F073A03197A2F73
:100FC800023A0319662F013A0319CB2F0F3A031976
:100FD800C82FEE2F8312031336083704031DF52F8D
:100FE800F62FFA2F0F30BE000030BF000800013482
:10166800F30101300A128A153F240A128A1508006C
:1016780064008001840A04060319003404063D2B23
:10168800831603138801091189100A128A15A325E4
:101698000A128A1508008312031312149214FA30DE
:1016A8008316031392008C1483120313121108007B
:1016B800831603130608073886000808F0398800DF
:1016C8008113831203138815081588140814080059
:1016D80083120313D400F30153080A128A153F2416
:1016E8000A128A15F301F30A8312031354080A1223
:1016F8008A153F240A128A1508000A128A159E23A1
:101708000A128A150A128A1174240A128A150A12F0
:101718008A1534230A128A15013083120313C00074
:101728000030C1000A128A151B270A128A150A12EC
:101738008A1110280A128A1544230A128A150A12D5
:101748008A155C230A128A150A128A154F230A126F
:101758008A158316031387108312031387108316C1
:10176800031307118312031307110B178B170800B4
:10177800F6000A128A156F260A128A15F5007508EE
:10178800F7007608031DC92BCA2BCC2B7708E02B52
:10179800770A0319D02BD12BD82B7A080319D52B0C
:1017A800D62BD82BFA01CA2B770A031DDC2BDD2B8D
:1017B800DF2BFA01FA0AFF30080083120313C8016D
:1017C800C901731CE82BE92BF12B7508831203134D
:1017D800C8070318C90A7608C90701300310F50DB0
:1017E800F60DFF3E031DF22B01300310F40CF30C31
:1017F800FF3E031DF92B73087404031D042C052CEC
:10180800E52B831203134908F4004808F300080085
:10181800F301831203134A080A128A153F240A1295
:101828008A152E2CF301F30A4908FF0048088400A2
:101838000A128A11EE240A128A150A128A153F24FE
:101848000A128A15013083120313C8070318C90A3C
:101858000030C907831203134908FF0048088400B1
:101868000A128A11EE240A128A15003A031D3D2C29
:101878003E2C162C0800F6007318432C472C8312B4
:10188800031309154A2C8312031309117608F0393A
:1018980088008914A630F400F40B502C0000831241
:1018A8000313891076080F39F40003300310F40D80
:1018B800FF3E031D5A2C0310740D88008914A630AE
:1018C800F400F40B652C00008312031389101B30FD
:1018D800F5009E30F400F40B6F2CF50B6F2C000014
:1018E80008003A3083120313C8008630C9008030DC
:1018F800F7007708CA000A128A150C240A128A15FA
:10190800323083120313C8008630C900C030F70094
:101918007708CA000A128A150C240A128A1503309D
:1019280083120313C8008630C9009030F700770887
:10193800CA000A128A150C240A128A154230831228
:101948000313C8008630C900D030F7007708CA00F2
:101958000A128A150C240A128A1508008312031326
:101968008619B72CB82CEE2C8714071112110A12FD
:101978008A1534230A128A15993083120313C80072
:101988008530C900C030F7007708CA000A128A15E6
:101998000C240A128A15443083120313C8008530B8
:1019A800C9009030F7007708CA000A128A150C247B
:1019B8000A128A1583120313861DE32CE42CDE2CED
:1019C8000A128A1534230A128A1583120313121570
:1019D80087100715013008008C1CF32CF42C3F2DC0
:1019E8000130A2070318A30A0030A307E230220639
:1019F800043003192306031D022D032D3C2DA201DB
:101A0800A3013B08803AFF0080307F02031D0E2DA2
:101A180001303A02031C112D122D1B2DFF308312A9
:101A28000313BA070318BB0AFF30BB073C2D831208
:101A380003133A083B04031D222D232D3C2D3D089A
:101A4800803AFF0080307F02031D2C2D01303C02BC
:101A5800031C2F2D302D3C2DFF3083120313BC07A0
:101A68000318BD0AFF30BD073B30BA000030BB0089
:101A7800831203138C107208FF0071088A00700E1D
:101A88008300FE0E7E0E090083120313D201CF1FBE
:101A98004E2D4F2D562DCE09CF09CE0A0319CF0A48
:101AA800D201D20ACD1F592D5A2D5F2DCC09CD094F
:101AB800CC0A0319CD0A4C084D040319642D652D71
:101AC800942DD101D10A732D01300310CC0DCD0D09
:101AD800FF3E031D692D0130D0005008D107CD1FEE
:101AE800762D772D682D4D084F02031D7D2D4C084E
:101AF8004E02031C802D812D872D4C08CE024D08E7
:101B0800031CCF03CF0201300310CD0CCC0CFF3ED9
:101B1800031D882D0130D102031D932D942D772D9F
:101B280052080319982D992D9E2DCE09CF09CE0A5A
:101B38000319CF0A4F08CD004E08CC000800C33067
:101B480083120313C900CC30C800C80BA92DC90BD8
:101B5800A92D0000F30130300A128A153F240A1219
:101B68008A151B3083120313C9009D30C800C80BA7
:101B7800BB2DC90BBB2DC02DF30130300A128A15BD
:101B88003F240A128A15A53083120313C800C80B14
:101B9800CB2DCE2DF30130300A128A153F240A12BC
:101BA8008A15D62DD72D0000F30102300A128A15A6
:101BB8003F240A128A15A53083120313C800C80BE4
:101BC800E32DE62DF30101300A128A153F240A128B
:101BD8008A15043083120313C9003D30C800C80BAE
:101BE800F32DC90BF32DF3010C300A128A153F248B
:101BF8000A128A15A53083120313C800C80B022ED7
:101C0800052E080083120313C901F41F0C2E0D2E94
:101C1800142EF309F409F30A0319F40AC901C90ACD
:101C2800F61F172E182E212EF509F609F50A0319A5
:101C3800F60A0130F7007708C906CA01CB01730814
:101C480074040319282E292E602EC801C80A372EBD
:101C580001300310F30DF40DFF3E031D2D2E01304E
:101C6800F7007708C807F41F3A2E3B2E2C2E0130B8
:101C78000310CA0DCB0DFF3E031D3C2E74087602DF
:101C8800031D482E73087502031C4B2E4C2E532E31
:101C98007308F5027408031CF603F6024A140130AF
:101CA8000310F40CF30CFF3E031D542E0130C80240
:101CB800031D5F2E602E3B2E49080319642E652EE6
:101CC8006A2ECA09CB09CA0A0319CB0A4B08F400C1
:101CD8004A08F300080083120313881108158814B2
:101CE80008146430F3000030F400FF30F3070318E1
:101CF800F40AFF30F407730A031D862E740A031DC5
:101D0800862E872E792E8312031306188C2E8D2E7D
:101D18008F2E01301A2F8618922E932E952E023070
:101D28001A2F0619982E992E9B2E03301A2F8815D4
:101D38000811881408146430F3000030F400FF30F0
:101D4800F3070318F40AFF30F407730A031DB02ED3
:101D5800740A031DB02EB12EA32E83120313061886
:101D6800B62EB72EB92E04301A2F8618BC2EBD2ECB
:101D7800BF2E05301A2F0619C22EC32EC52E0630C7
:101D88001A2F88150815881008146430F3000030DD
:101D9800F400FF30F3070318F40AFF30F407730A5E
:101DA800031DDA2E740A031DDA2EDB2ECD2E8312C4
:101DB80003130618E02EE12EE32E07301A2F86189B
:101DC800E62EE72EE92E08301A2F0619EC2EED2EF6
:101DD800EF2E09301A2F881508158814081064305A
:101DE800F3000030F400FF30F3070318F40AFF3063
:101DF800F407730A031D042F740A031D042F052F0B
:101E0800F72E8312031306180A2F0B2F0D2F2A30D3
:101E18001A2F8618102F112F132F00301A2F06197A
:101E2800162F172F192F23301A2FFF3008000130D3
:101E38000A128A15BC230A128A1583120313DC00BE
:101E48005C08DF0002304006410403192C2F2D2FB7
:101E5800F62F0330400641040319332F342FF62F91
:101E6800043040064104031D3A2F3B2F3D2FF62F27
:101E7800F62F5F03031D412F422F722F0230C0003F
:101E88000030C1001130BE000030BF000A128A15B0
:101E980034230A128A15DA3083120313C8008530F6
:101EA800C900C030DC005C08CA000A128A150C247C
:101EB8000A128A154D3083120313DE001930DD0033
:101EC8004F30DC00DC0B662FDD0B662FDE0B662F38
:101ED8000A128A1534230A128A15F62F02305F0671
:101EE800031D772F782F812F0330C0000030C100E9
:101EF8001230BE000030BF006C2F03305F06031D98
:101F0800862F872F902F0430C0000030C100133077
:101F1800BE000030BF006C2F04305F06031D952FF4
:101F2800962FE02F40034104031D9B2F9C2FA92FC0
:101F3800BC01BD011E30BA000030BB0012150715E8
:101F48000630C0000030C100F62F063040064104BC
:101F5800031DAF2FB02FD62F3A081E3EBA003B08FC
:101F68000318013E003EBB003B08803AFF0080306A
:101F78007F02031DC12F3C303A02031CC42FC52F1A
:101F88003C2F013083120313BC070318BD0A00302D
:101F9800BD073A08C43EBA003B080318013EFF3E9D
:101FA800BB00F62F083040064104031DDC2FDD2F4F
:101FB8003C2F12150715A42F05305F06031DE52FCA
:101FC800E62FEB2F0830C0000030C100F62F063096
:101FD8005F06031DF02FF12F3C2F0730C0000030A3
:101FE800C1006C2F831203135F080A128A115C2741
:081FF8000A128A151B2F0800D4
:02400E00FB3F76
:00000001FF
